{
  "address": "0x0634E99262846bc994E610Fb386ee9C0ba9D1080",
  "abi": [
    {
      "inputs": [
        {
          "internalType": "address",
          "name": "priceFeedAddress",
          "type": "address"
        }
      ],
      "stateMutability": "nonpayable",
      "type": "constructor"
    },
    {
      "stateMutability": "payable",
      "type": "fallback"
    },
    {
      "inputs": [],
      "name": "MINIMUM_USD",
      "outputs": [
        {
          "internalType": "uint256",
          "name": "",
          "type": "uint256"
        }
      ],
      "stateMutability": "view",
      "type": "function"
    },
    {
      "inputs": [
        {
          "internalType": "address",
          "name": "",
          "type": "address"
        }
      ],
      "name": "addressToAmountFunded",
      "outputs": [
        {
          "internalType": "uint256",
          "name": "",
          "type": "uint256"
        }
      ],
      "stateMutability": "view",
      "type": "function"
    },
    {
      "inputs": [],
      "name": "fund",
      "outputs": [],
      "stateMutability": "payable",
      "type": "function"
    },
    {
      "inputs": [
        {
          "internalType": "uint256",
          "name": "",
          "type": "uint256"
        }
      ],
      "name": "funders",
      "outputs": [
        {
          "internalType": "address",
          "name": "",
          "type": "address"
        }
      ],
      "stateMutability": "view",
      "type": "function"
    },
    {
      "inputs": [],
      "name": "i_owner",
      "outputs": [
        {
          "internalType": "address",
          "name": "",
          "type": "address"
        }
      ],
      "stateMutability": "view",
      "type": "function"
    },
    {
      "inputs": [],
      "name": "priceFeed",
      "outputs": [
        {
          "internalType": "contract AggregatorV3Interface",
          "name": "",
          "type": "address"
        }
      ],
      "stateMutability": "view",
      "type": "function"
    },
    {
      "inputs": [],
      "name": "withdraw",
      "outputs": [],
      "stateMutability": "nonpayable",
      "type": "function"
    },
    {
      "stateMutability": "payable",
      "type": "receive"
    }
  ],
  "transactionHash": "0x617996d60c1ccb566edcbf21eadf4ac04c3db76881de591d168b8e320331ee1b",
  "args": [
    "0x8a753747a1fa494ec906ce90e9f37563a8af630e"
  ],
  "numDeployments": 1,
  "solcInputHash": "a2f4f8da683fd0e0e8ec0ba0004cd988",
  "bytecode": "0x60a060405234801561001057600080fd5b5060405162000ff238038062000ff283398181016040528101906100349190610115565b3373ffffffffffffffffffffffffffffffffffffffff1660808173ffffffffffffffffffffffffffffffffffffffff1660601b8152505080600260006101000a81548173ffffffffffffffffffffffffffffffffffffffff021916908373ffffffffffffffffffffffffffffffffffffffff16021790555050610142565b600080fd5b600073ffffffffffffffffffffffffffffffffffffffff82169050919050565b60006100e2826100b7565b9050919050565b6100f2816100d7565b81146100fd57600080fd5b50565b60008151905061010f816100e9565b92915050565b60006020828403121561012b5761012a6100b2565b5b600061013984828501610100565b91505092915050565b60805160601c610e8a62000168600039600081816102d401526105680152610e8a6000f3fe6080604052600436106100745760003560e01c8063741bef1a1161004e578063741bef1a1461010c578063b60d428814610137578063dba6335f14610141578063dc0d3dff1461016c57610083565b80633ccfd60b1461008d5780633e47d6f3146100a45780636b69a592146100e157610083565b36610083576100816101a9565b005b61008b6101a9565b005b34801561009957600080fd5b506100a26102d2565b005b3480156100b057600080fd5b506100cb60048036038101906100c691906107ac565b61051b565b6040516100d891906107f2565b60405180910390f35b3480156100ed57600080fd5b506100f6610533565b60405161010391906107f2565b60405180910390f35b34801561011857600080fd5b50610121610540565b60405161012e919061086c565b60405180910390f35b61013f6101a9565b005b34801561014d57600080fd5b50610156610566565b6040516101639190610896565b60405180910390f35b34801561017857600080fd5b50610193600480360381019061018e91906108dd565b61058a565b6040516101a09190610896565b60405180910390f35b6802b5e3af16b18800006101e8600260009054906101000a900473ffffffffffffffffffffffffffffffffffffffff16346105c990919063ffffffff16565b1015610229576040517f08c379a000000000000000000000000000000000000000000000000000000000815260040161022090610967565b60405180910390fd5b6000339080600181540180825580915050600190039060005260206000200160009091909190916101000a81548173ffffffffffffffffffffffffffffffffffffffff021916908373ffffffffffffffffffffffffffffffffffffffff16021790555034600160003373ffffffffffffffffffffffffffffffffffffffff1673ffffffffffffffffffffffffffffffffffffffff16815260200190815260200160002081905550565b7f000000000000000000000000000000000000000000000000000000000000000073ffffffffffffffffffffffffffffffffffffffff163373ffffffffffffffffffffffffffffffffffffffff1614610360576040517f08c379a0000000000000000000000000000000000000000000000000000000008152600401610357906109d3565b60405180910390fd5b60005b60008054905081101561040b576000808281548110610385576103846109f3565b5b9060005260206000200160009054906101000a900473ffffffffffffffffffffffffffffffffffffffff1690506000600160008373ffffffffffffffffffffffffffffffffffffffff1673ffffffffffffffffffffffffffffffffffffffff1681526020019081526020016000208190555050808061040390610a51565b915050610363565b50600067ffffffffffffffff81111561042757610426610a9a565b5b6040519080825280602002602001820160405280156104555781602001602082028036833780820191505090505b506000908051906020019061046b9291906106a2565b5060003373ffffffffffffffffffffffffffffffffffffffff164760405161049290610afa565b60006040518083038185875af1925050503d80600081146104cf576040519150601f19603f3d011682016040523d82523d6000602084013e6104d4565b606091505b5050905080610518576040517f08c379a000000000000000000000000000000000000000000000000000000000815260040161050f90610b5b565b60405180910390fd5b50565b60016020528060005260406000206000915090505481565b6802b5e3af16b188000081565b600260009054906101000a900473ffffffffffffffffffffffffffffffffffffffff1681565b7f000000000000000000000000000000000000000000000000000000000000000081565b6000818154811061059a57600080fd5b906000526020600020016000915054906101000a900473ffffffffffffffffffffffffffffffffffffffff1681565b6000806105d583610602565b905060006402540be40085836105eb9190610b7b565b6105f59190610c04565b9050809250505092915050565b6000808273ffffffffffffffffffffffffffffffffffffffff1663feaf968c6040518163ffffffff1660e01b815260040160a06040518083038186803b15801561064b57600080fd5b505afa15801561065f573d6000803e3d6000fd5b505050506040513d601f19601f820116820180604052508101906106839190610cc2565b5050509150506402540be4008161069a9190610d3d565b915050919050565b82805482825590600052602060002090810192821561071b579160200282015b8281111561071a5782518260006101000a81548173ffffffffffffffffffffffffffffffffffffffff021916908373ffffffffffffffffffffffffffffffffffffffff160217905550916020019190600101906106c2565b5b509050610728919061072c565b5090565b5b8082111561074557600081600090555060010161072d565b5090565b600080fd5b600073ffffffffffffffffffffffffffffffffffffffff82169050919050565b60006107798261074e565b9050919050565b6107898161076e565b811461079457600080fd5b50565b6000813590506107a681610780565b92915050565b6000602082840312156107c2576107c1610749565b5b60006107d084828501610797565b91505092915050565b6000819050919050565b6107ec816107d9565b82525050565b600060208201905061080760008301846107e3565b92915050565b6000819050919050565b600061083261082d6108288461074e565b61080d565b61074e565b9050919050565b600061084482610817565b9050919050565b600061085682610839565b9050919050565b6108668161084b565b82525050565b6000602082019050610881600083018461085d565b92915050565b6108908161076e565b82525050565b60006020820190506108ab6000830184610887565b92915050565b6108ba816107d9565b81146108c557600080fd5b50565b6000813590506108d7816108b1565b92915050565b6000602082840312156108f3576108f2610749565b5b6000610901848285016108c8565b91505092915050565b600082825260208201905092915050565b7f4469646e742073656e6420656e6f756768000000000000000000000000000000600082015250565b600061095160118361090a565b915061095c8261091b565b602082019050919050565b6000602082019050818103600083015261098081610944565b9050919050565b7f4e6f742061204f776e6572000000000000000000000000000000000000000000600082015250565b60006109bd600b8361090a565b91506109c882610987565b602082019050919050565b600060208201905081810360008301526109ec816109b0565b9050919050565b7f4e487b7100000000000000000000000000000000000000000000000000000000600052603260045260246000fd5b7f4e487b7100000000000000000000000000000000000000000000000000000000600052601160045260246000fd5b6000610a5c826107d9565b91507fffffffffffffffffffffffffffffffffffffffffffffffffffffffffffffffff821415610a8f57610a8e610a22565b5b600182019050919050565b7f4e487b7100000000000000000000000000000000000000000000000000000000600052604160045260246000fd5b600081905092915050565b50565b6000610ae4600083610ac9565b9150610aef82610ad4565b600082019050919050565b6000610b0582610ad7565b9150819050919050565b7f43616c6c206661696c6564000000000000000000000000000000000000000000600082015250565b6000610b45600b8361090a565b9150610b5082610b0f565b602082019050919050565b60006020820190508181036000830152610b7481610b38565b9050919050565b6000610b86826107d9565b9150610b91836107d9565b9250817fffffffffffffffffffffffffffffffffffffffffffffffffffffffffffffffff0483118215151615610bca57610bc9610a22565b5b828202905092915050565b7f4e487b7100000000000000000000000000000000000000000000000000000000600052601260045260246000fd5b6000610c0f826107d9565b9150610c1a836107d9565b925082610c2a57610c29610bd5565b5b828204905092915050565b600069ffffffffffffffffffff82169050919050565b610c5481610c35565b8114610c5f57600080fd5b50565b600081519050610c7181610c4b565b92915050565b6000819050919050565b610c8a81610c77565b8114610c9557600080fd5b50565b600081519050610ca781610c81565b92915050565b600081519050610cbc816108b1565b92915050565b600080600080600060a08688031215610cde57610cdd610749565b5b6000610cec88828901610c62565b9550506020610cfd88828901610c98565b9450506040610d0e88828901610cad565b9350506060610d1f88828901610cad565b9250506080610d3088828901610c62565b9150509295509295909350565b6000610d4882610c77565b9150610d5383610c77565b9250827f7fffffffffffffffffffffffffffffffffffffffffffffffffffffffffffffff0482116000841360008413161615610d9257610d91610a22565b5b817f80000000000000000000000000000000000000000000000000000000000000000583126000841260008413161615610dcf57610dce610a22565b5b827f80000000000000000000000000000000000000000000000000000000000000000582126000841360008412161615610e0c57610e0b610a22565b5b827f7fffffffffffffffffffffffffffffffffffffffffffffffffffffffffffffff0582126000841260008412161615610e4957610e48610a22565b5b82820290509291505056fea2646970667358221220c1b4c8fbbe8295b1e378c6c38fa2739363f563bbc93aa2a0538ba004ed079b9d64736f6c63430008080033",
  "devdoc": {
    "kind": "dev",
    "methods": {},
    "version": 1
  },
  "userdoc": {
    "kind": "user",
    "methods": {},
    "version": 1
  },
  "storageLayout": {
    "storage": [
      {
        "astId": 59,
        "contract": "contracts/FundMe.sol:FundMe",
        "label": "funders",
        "offset": 0,
        "slot": "0",
        "type": "t_array(t_address)dyn_storage"
      },
      {
        "astId": 63,
        "contract": "contracts/FundMe.sol:FundMe",
        "label": "addressToAmountFunded",
        "offset": 0,
        "slot": "1",
        "type": "t_mapping(t_address,t_uint256)"
      },
      {
        "astId": 68,
        "contract": "contracts/FundMe.sol:FundMe",
        "label": "priceFeed",
        "offset": 0,
        "slot": "2",
        "type": "t_contract(AggregatorV3Interface)45"
      }
    ],
    "types": {
      "t_address": {
        "encoding": "inplace",
        "label": "address",
        "numberOfBytes": "20"
      },
      "t_array(t_address)dyn_storage": {
        "base": "t_address",
        "encoding": "dynamic_array",
        "label": "address[]",
        "numberOfBytes": "32"
      },
      "t_contract(AggregatorV3Interface)45": {
        "encoding": "inplace",
        "label": "contract AggregatorV3Interface",
        "numberOfBytes": "20"
      },
      "t_mapping(t_address,t_uint256)": {
        "encoding": "mapping",
        "key": "t_address",
        "label": "mapping(address => uint256)",
        "numberOfBytes": "32",
        "value": "t_uint256"
      },
      "t_uint256": {
        "encoding": "inplace",
        "label": "uint256",
        "numberOfBytes": "32"
      }
    }
  }
}